:020000040800F2
:1000000000500020492C0008452A00084B2A00080F
:10001000512A0008572A00085D2A00080000000045
:10002000000000000000000000000000632A00083B
:100030006F2A0008000000007B2A0008872A0008B9
:10004000912C0008912C0008912C0008912C00089C
:10005000912C0008912C0008912C0008912C00088C
:10006000912C0008912C0008912C0008912C00087C
:10007000912C0008912C0008912C0008952A00086A
:10008000A92A0008912C0008912C0008912C000846
:10009000912C0008912C0008912C0008912C00084C
:1000A000912C0008912C0008912C0008912C00083C
:1000B000912C0008912C0008912C0008912C00082C
:1000C000912C0008912C0008912C0008912C00081C
:1000D000912C0008912C0008912C0008912C00080C
:1000E000912C0008912C0008912C000800000000C1
:1000F0000000000000000000000000000000000000
:0C01000000000000000000005FF808F1A3
:1001100010B5054C237833B9044B13B10448AFF341
:1001200000800123237010BDF001002000000000BA
:10013000ECBC000808B5034B1BB103490348AFF3FF
:10014000008008BD00000000F4010020ECBC0008A5
:10015000034613F8012B002AFBD1181A0138704707
:1001600081F0004102E000BF83F0004330B54FEA68
:1001700041044FEA430594EA050F08BF90EA020FD5
:100180001FBF54EA000C55EA020C7FEA645C7FEA68
:10019000655C00F0E2804FEA5454D4EB5555B8BF8B
:1001A0006D420CDD2C4480EA020281EA030382EAFC
:1001B000000083EA010180EA020281EA0303362D8E
:1001C00088BF30BD11F0004F4FEA01314FF4801C61
:1001D0004CEA113102D0404261EB410113F0004F73
:1001E0004FEA03334CEA133302D0524263EB43032A
:1001F00094EA050F00F0A780A4F10104D5F1200EC8
:100200000DDB02FA0EFC22FA05F2801841F1000122
:1002100003FA0EF2801843FA05F359410EE0A5F1F6
:1002200020050EF1200E012A03FA0EFC28BF4CF027
:10023000020C43FA05F3C01851EBE37101F00045DD
:1002400007D54FF0000EDCF1000C7EEB00006EEBEA
:100250000101B1F5801F1BD3B1F5001F0CD3490874
:100260005FEA30004FEA3C0C04F101044FEA4452CB
:1002700012F5800F80F09A80BCF1004F08BF5FEA52
:10028000500C50F1000041EB045141EA050130BD32
:100290005FEA4C0C404141EB0101013C28BFB1F544
:1002A000801FE9D291F0000F04BF01460020B1FA8F
:1002B00081F308BF2033A3F10B03B3F120020CDA62
:1002C0000C3208DD02F1140CC2F10C0201FA0CF040
:1002D00021FA02F10CE002F11402D8BFC2F1200CA5
:1002E00001FA02F120FA0CFCDCBF41EA0C0190405B
:1002F000E41AA2BF01EB0451294330BD6FEA0404A4
:100300001F3C1CDA0C340EDC04F11404C4F120028E
:1003100020FA04F001FA02F340EA030021FA04F3A0
:1003200045EA030130BDC4F10C04C4F1200220FAF7
:1003300002F001FA04F340EA0300294630BD21FA35
:1003400004F0294630BD94F0000F83F4801306BFFB
:1003500081F480110134013D4EE77FEA645C18BFEF
:100360007FEA655C29D094EA050F08BF90EA020F86
:1003700005D054EA000C04BF1946104630BD91EA7E
:10038000030F1EBF0021002030BD5FEA545C05D181
:100390004000494128BF41F0004130BD14F58004C0
:1003A0003CBF01F5801130BD01F0004545F0FE4134
:1003B00041F470014FF0000030BD7FEA645C1ABF69
:1003C000194610467FEA655C1CBF0B46024650EAA0
:1003D000013406BF52EA033591EA030F41F40021CC
:1003E00030BD00BF90F0000F04BF0021704730B552
:1003F0004FF4806404F132044FF000054FF0000127
:1004000050E700BF90F0000F04BF0021704730B5E7
:100410004FF4806404F1320410F0004548BF4042BC
:100420004FF000013EE700BF42004FEAE2014FEA11
:1004300031014FEA02701FBF12F07F4393F07F4FEC
:1004400081F06051704732F07F4208BF704793F0EF
:100450007F4F04BF41F40021704730B54FF4607402
:1004600001F0004521F000411CE700BF50EA010205
:1004700008BF704730B54FF000050AE050EA0102AE
:1004800008BF704730B511F0004502D5404261EB1E
:1004900041014FF4806404F132045FEA915C3FF45F
:1004A000D8AE4FF003025FEADC0C18BF03325FEAFC
:1004B000DC0C18BF033202EBDC02C2F1200300FAAD
:1004C00003FC20FA02F001FA03FE40EA0E0021FAD2
:1004D00002F11444BDE600BF70B54FF0FF0C4CF4C0
:1004E000E06C1CEA11541DBF1CEA135594EA0C0F72
:1004F00095EA0C0F00F0DEF82C4481EA030621EAAD
:100500004C5123EA4C5350EA013518BF52EA0335E7
:1005100041F4801143F4801338D0A0FB02CE4FF099
:100520000005E1FB02E506F00042E0FB03E54FF0C9
:100530000006E1FB03569CF0000F18BF4EF0010EC1
:10054000A4F1FF04B6F5007F64F5407404D25FEABD
:100550004E0E6D4146EB060642EAC62141EA555170
:100560004FEAC52040EA5E504FEACE2EB4F1FD0CB2
:1005700088BFBCF5E06F1ED8BEF1004F08BF5FEA30
:10058000500E50F1000041EB045170BD06F00046E2
:1005900046EA010140EA020081EA0301B4EB5C048F
:1005A000C2BFD4EB0C0541EA045170BD41F4801187
:1005B0004FF0000E013C00F3AB8014F1360FDEBFAC
:1005C000002001F0004170BDC4F10004203C35DA88
:1005D0000C341BDC04F11404C4F1200500FA05F30B
:1005E00020FA04F001FA05F240EA020001F00042AC
:1005F00021F0004110EBD37021FA04F642EB060122
:100600005EEA430E08BF20EAD37070BDC4F10C044B
:10061000C4F1200500FA04F320FA05F001FA04F20F
:1006200040EA020001F0004110EBD37041F10001FB
:100630005EEA430E08BF20EAD37070BDC4F1200506
:1006400000FA05F24EEA020E20FA04F301FA05F26E
:1006500043EA020321FA04F001F0004121FA04F216
:1006600020EA020000EBD3705EEA430E08BF20EAE6
:10067000D37070BD94F0000F0FD101F00046400020
:1006800041EB010111F4801F08BF013CF7D041EAA2
:10069000060195F0000F18BF704703F000465200A6
:1006A00043EB030313F4801F08BF013DF7D043EA77
:1006B0000603704794EA0C0F0CEA135518BF95EA2D
:1006C0000C0F0CD050EA410618BF52EA4306D1D1B4
:1006D00081EA030101F000414FF0000070BD50EAD3
:1006E000410606BF1046194652EA430619D094EA5D
:1006F0000C0F02D150EA013613D195EA0C0F05D147
:1007000052EA03361CBF104619460AD181EA03019A
:1007100001F0004141F0FE4141F470014FF0000052
:1007200070BD41F0FE4141F4780170BD70B54FF0ED
:10073000FF0C4CF4E06C1CEA11541DBF1CEA13556D
:1007400094EA0C0F95EA0C0F00F0A7F8A4EB05044F
:1007500081EA030E52EA03354FEA013100F0888046
:100760004FEA03334FF0805545EA131343EA12630F
:100770004FEA022245EA111545EA10654FEA0026C4
:100780000EF000419D4208BF964244F1FD0404F57D
:10079000407402D25B084FEA3202B61A65EB0305D9
:1007A0005B084FEA32024FF480104FF4002CB6EB96
:1007B000020E75EB030E22BFB61A754640EA0C0016
:1007C0005B084FEA3202B6EB020E75EB030E22BF56
:1007D000B61A754640EA5C005B084FEA3202B6EB97
:1007E000020E75EB030E22BFB61A754640EA9C0056
:1007F0005B084FEA3202B6EB020E75EB030E22BF26
:10080000B61A754640EADC0055EA060E18D04FEAE3
:10081000051545EA16754FEA06164FEAC30343EA83
:1008200052734FEAC2025FEA1C1CC0D111F4801F50
:100830000BD141EA00014FF000004FF0004CB6E749
:1008400011F4801F04BF01430020B4F1FD0C88BFE8
:10085000BCF5E06F3FF6AFAEB5EB030C04BFB6EBF3
:10086000020C5FEA500C50F1000041EB045170BDE6
:100870000EF0004E4EEA113114EB5C04C2BFD4EB13
:100880000C0541EA045170BD41F480114FF0000E97
:10089000013C90E645EA060E8DE60CEA135594EA13
:1008A0000C0F08BF95EA0C0F3FF43BAF94EA0C0F16
:1008B0000AD150EA01347FF434AF95EA0C0F7FF48B
:1008C00025AF104619462CE795EA0C0F06D152EADF
:1008D00003353FF4FDAE1046194622E750EA4106C3
:1008E00018BF52EA43067FF4C5AE50EA41047FF4D4
:1008F0000DAF52EA43057FF4EBAE12E74FF0FF3C39
:1009000006E000BF4FF0010C02E000BF4FF0010C09
:100910004DF804CD4FEA410C7FEA6C5C4FEA430C82
:1009200018BF7FEA6C5C1BD001B050EA410C0CBFD1
:1009300052EA430C91EA030F02BF90EA020F002033
:10094000704710F1000F91EA030F58BF994208BF9A
:1009500090422CBFD8176FEAE37040F00100704757
:100960004FEA410C7FEA6C5C02D150EA013C07D1AE
:100970004FEA430C7FEA6C5CD6D152EA033CD3D0F9
:100980005DF8040B704700BF8446104662468C46F3
:100990001946634600E000BF01B5FFF7B7FF002826
:1009A00048BF10F1000F01BD4DF808EDFFF7F4FF4F
:1009B0000CBF012000205DF808FB00BF4DF808EDDA
:1009C000FFF7EAFF34BF012000205DF808FB00BFFD
:1009D0004DF808EDFFF7E0FF94BF012000205DF81F
:1009E00008FB00BF4DF808EDFFF7CEFF94BF0120D4
:1009F00000205DF808FB00BF4DF808EDFFF7C4FFCD
:100A000034BF012000205DF808FB00BF4FEA410C15
:100A10007FEA6C5C02D150EA013C0AD14FEA430CF8
:100A20007FEA6C5C02D152EA033C02D14FF0000035
:100A300070474FF0010070474FEA410212F5001273
:100A400015D211D56FF47873B3EB625212D94FEA15
:100A5000C12343F0004343EA505311F0004F23FAFF
:100A600002F018BF404270474FF00000704750EA54
:100A7000013005D111F0004008BF6FF00040704711
:100A80004FF00000704700BF4A0011D212F500126B
:100A900011D20DD56FF47873B3EB62520ED44FEAD6
:100AA000C12343F0004343EA505323FA02F0704756
:100AB0004FF00000704750EA013002D14FF0FF3094
:100AC00070474FF0000070474FEA4102B2F1E04337
:100AD00024BFB3F5001CDCF1FE5C0DD901F0004C25
:100AE0004FEAC0024CEA5070B2F1004F40EB830075
:100AF00008BF20F00100704711F0804F21D113F1A1
:100B00003872BCBF01F00040704741F480114FEAD9
:100B10005252C2F11802C2F1200C10FA0CF320FA62
:100B200002F018BF40F001004FEAC1234FEAD3237F
:100B300003FA0CFC40EA0C0023FA02F34FEA4303E9
:100B4000CCE77FEA625307D150EA01331EBF4FF072
:100B5000FE4040F44000704701F0004040F0FE408D
:100B600040F40000704700BF80F0004002E000BF8A
:100B700081F0004142001FBF5FEA410392EA030F88
:100B80007FEA226C7FEA236C6AD04FEA1262D2EBD2
:100B90001363C1BFD218414048404140B8BF5B42D7
:100BA000192B88BF704710F0004F40F4000020F070
:100BB0007F4018BF404211F0004F41F4000121F086
:100BC0007F4118BF494292EA030F3FD0A2F10102D0
:100BD00041FA03FC10EB0C00C3F1200301FA03F10E
:100BE00000F0004302D5494260EB4000B0F5000F31
:100BF00013D3B0F1807F06D340084FEA310102F1F0
:100C00000102FE2A51D2B1F1004F40EBC25008BFA1
:100C100020F0010040EA03007047490040EB00006B
:100C2000013A28BFB0F5000FEDD2B0FA80FCACF16C
:100C3000080CB2EB0C0200FA0CF0AABF00EBC25099
:100C400052421843BCBFD0401843704792F0000F87
:100C500081F4000106BF80F400000132013BB5E7DA
:100C60004FEA41037FEA226C18BF7FEA236C21D050
:100C700092EA030F04D092F0000F08BF08467047B5
:100C800090EA010F1CBF0020704712F07F4F04D183
:100C9000400028BF40F00040704712F100723CBF96
:100CA00000F50000704700F0004343F0FE4040F4C0
:100CB000000070477FEA226216BF08467FEA23637E
:100CC0000146420206BF5FEA412390EA010F40F469
:100CD000800070474FF0000304E000BF10F00043B5
:100CE00048BF40425FEA000C08BF704743F096439C
:100CF00001464FF000001CE050EA010208BF7047B7
:100D00004FF000030AE000BF50EA010208BF70473D
:100D100011F0004302D5404261EB41015FEA010C52
:100D200002BF84460146002043F0B64308BFA3F14A
:100D30008053A3F50003BCFA8CF2083AA3EBC2532C
:100D400010DB01FA02FC634400FA02FCC2F120024B
:100D5000BCF1004F20FA02F243EB020008BF20F082
:100D60000100704702F1200201FA02FCC2F12002E8
:100D700050EA4C0021FA02F243EB020008BF20EADD
:100D8000DC7070474FF0FF0C1CEAD0521EBF1CEA0B
:100D9000D15392EA0C0F93EA0C0F6FD01A4480EAF9
:100DA000010C400218BF5FEA41211ED04FF00063E2
:100DB00043EA501043EA5111A0FB01310CF000400E
:100DC000B1F5000F3EBF490041EAD3715B0040EA34
:100DD000010062F17F02FD2A1DD8B3F1004F40EB04
:100DE000C25008BF20F00100704790F0000F0CF0D7
:100DF000004C08BF49024CEA502040EA51207F3A9B
:100E0000C2BFD2F1FF0340EAC250704740F4000075
:100E10004FF00003013A5DDC12F1190FDCBF00F066
:100E200000407047C2F10002410021FA02F1C2F114
:100E3000200200FA02FC5FEA310040F1000053EAB0
:100E40004C0308BF20EADC70704792F0000F00F0FE
:100E5000004C02BF400010F4000F013AF9D040EA04
:100E60000C0093F0000F01F0004C02BF490011F498
:100E7000000F013BF9D041EA0C018FE70CEAD15396
:100E800092EA0C0F18BF93EA0C0F0AD030F0004C16
:100E900018BF31F0004CD8D180EA010000F00040CA
:100EA000704790F0000F17BF90F0004F084691F088
:100EB000000F91F0004F14D092EA0C0F01D14202C2
:100EC0000FD193EA0C0F03D14B0218BF084608D18B
:100ED00080EA010000F0004040F0FE4040F40000D5
:100EE000704740F0FE4040F4400070474FF0FF0C68
:100EF0001CEAD0521EBF1CEAD15392EA0C0F93EAAF
:100F00000C0F69D0A2EB030280EA010C49024FEA00
:100F1000402037D04FF0805343EA111143EA1013B9
:100F20000CF000408B4238BF5B0042F17D024FF471
:100F3000000C8B4224BF5B1A40EA0C00B3EB510F4C
:100F400024BFA3EB510340EA5C00B3EB910F24BF35
:100F5000A3EB910340EA9C00B3EBD10F24BFA3EBBA
:100F6000D10340EADC001B0118BF5FEA1C1CE0D182
:100F7000FD2A3FF650AF8B4240EBC25008BF20F035
:100F8000010070470CF0004C4CEA50207F32C2BF89
:100F9000D2F1FF0340EAC250704740F400004FF026
:100FA0000003013A37E792F0000F00F0004C02BF57
:100FB000400010F4000F013AF9D040EA0C0093F021
:100FC000000F01F0004C02BF490011F4000F013B7B
:100FD000F9D041EA0C0195E70CEAD15392EA0C0FE3
:100FE00008D142027FF47DAF93EA0C0F7FF470AF1B
:100FF000084676E793EA0C0F04D14B023FF44CAF5E
:1010000008466EE730F0004C18BF31F0004CCAD1F2
:1010100030F000427FF45CAF31F000437FF43CAF2E
:101020005FE700BF4FF0FF3C06E000BF4FF0010C50
:1010300002E000BF4FF0010C4DF804CD4FEA400232
:101040004FEA41037FEA226C18BF7FEA236C11D07C
:1010500001B052EA530C18BF90EA010F58BFB2EB2F
:10106000030088BFC81738BF6FEAE17018BF40F0AF
:10107000010070477FEA226C02D15FEA402C05D163
:101080007FEA236CE4D15FEA412CE1D05DF8040BE8
:10109000704700BF844608466146FFE70FB5FFF77B
:1010A000C9FF002848BF10F1000F0FBD4DF808ED33
:1010B000FFF7F4FF0CBF012000205DF808FB00BF24
:1010C0004DF808EDFFF7EAFF34BF012000205DF87E
:1010D00008FB00BF4DF808EDFFF7E0FF94BF0120CB
:1010E00000205DF808FB00BF4DF808EDFFF7D2FFC8
:1010F00094BF012000205DF808FB00BF4DF808ED0B
:10110000FFF7C8FF34BF012000205DF808FB00BFD7
:1011100038B505460C460022002328462146FFF735
:101120004DFC28B928462146BDE8384000F00AB8F1
:10113000284604F1004100F005F8404261EB41010E
:1011400038BD00BFD0B500220B4B06460F46FFF757
:10115000C3F9FFF799FC0446FFF744F90022074B57
:10116000FFF7BAF902460B4630463946FEF7FCFF58
:10117000FFF78AFC2146D0BD0000F03D0000F041A1
:10118000B0B5A2B000AF78605C49786806F037FE71
:10119000B867BB6F002B00F0AB80BA6F7B68D31AC7
:1011A0007B670023C7F884300023C7F88030002312
:1011B000FB670FE07A6FFB6F13441A467B6813449A
:1011C000197807F12002FB6F13440A461A70FB6F6F
:1011D0000133FB67FB6F4F2B08DC7A6FFB6F134407
:1011E0001A467B6813441B78002BE3D107F12002D9
:1011F000FB6F134400221A7011E007F12002D7F8A8
:10120000803013441B782C2B04D1D7F88430013361
:10121000C7F88430D7F880300133C7F88030D7F86A
:101220008430022BE9D107F12002D7F88030134433
:101230001B78412B59D111E007F12002D7F88030FB
:1012400013441B782C2B04D1D7F884300133C7F812
:101250008430D7F880300133C7F88030D7F8843035
:10126000032BE9D1D7F8803007F12002D11807F11C
:1012700014030A22184606F0AFFD00237B7707F11E
:10128000140107F110030222184606F0A5FD002301
:10129000BB7407F11403023307F108000722194653
:1012A00006F09AFD0023FB7307F11003184604F0C3
:1012B000ADFF04460D4607F10803184604F0A6FFEB
:1012C0004FF000020E4BFFF731FA02460B46204664
:1012D0002946FEF74BFF02460B4610461946FFF71C
:1012E000F3FB03463B673B6F04E04FF0000301E074
:1012F0004FF0000318468837BD46B0BD08BD000852
:1013000000004E40B0B5A2B000AF78605C4978688C
:1013100006F075FDB867BB6F002B00F0AB80BA6FAD
:101320007B68D31A7B670023C7F884300023C7F893
:1013300080300023FB670FE07A6FFB6F13441A467F
:101340007B681344197807F12002FB6F13440A46A7
:101350001A70FB6F0133FB67FB6F4F2B08DC7A6F52
:10136000FB6F13441A467B6813441B78002BE3D1B0
:1013700007F12002FB6F134400221A7011E007F1FD
:101380002002D7F8803013441B782C2B04D1D7F8D7
:1013900084300133C7F88430D7F880300133C7F880
:1013A0008030D7F88430022BE9D107F12002D7F83A
:1013B000803013441B78412B59D111E007F12002F2
:1013C000D7F8803013441B782C2B04D1D7F8843005
:1013D0000133C7F88430D7F880300133C7F8803044
:1013E000D7F88430052BE9D1D7F8803007F12002F7
:1013F000D11807F114030B22184606F0EDFC002368
:10140000BB7707F1140107F110030322184606F019
:10141000E3FC0023FB7407F11403033307F1080016
:101420000722194606F0D8FC0023FB7307F11003CE
:10143000184604F0EBFE04460D4607F10803184673
:1014400004F0E4FE4FF000020E4BFFF76FF9024686
:101450000B4620462946FEF789FE02460B461046FB
:101460001946FFF731FB03463B673B6F04E04FF043
:10147000000301E04FF0000318468837BD46B0BDB9
:1014800008BD000800004E4090B5ADF23C5D00AFD5
:1014900001F000FC00F09CFA00F0FAFB00F0D2FB37
:1014A00000F024FB00F050FB00F078FB00F0A0FB04
:1014B00000F0DEFA07F59A6340221946D14804F09D
:1014C0003CFB4FF4FA7001F047FC07F527734FF42B
:1014D000FA721946CC4804F030FB4FF4FA7001F070
:1014E0003BFC00F075FD642001F036FC01F034F89F
:1014F00007F1A00207F1A4031146184600F0FCFB17
:1015000007F5926107F59A634022184600F05EFCE9
:10151000C7F8200500F0D4FC07F5A363C3E9000178
:1015200007F5A763A3F294431B681846FEF77CFFF8
:1015300002460B4607F19800B44906F0C1FB07F5D7
:10154000A763A3F593631B681846FEF76DFF024679
:101550000B4607F19000AD4906F0B2FB07F180039E
:10156000D7F82025AA49184606F0AAFB07F18800FB
:1015700007F5A363D3E90023A44906F0A1FB07F113
:1015800098031846FEF7E4FDC7F834050DE007F5AB
:10159000A763A3F59462D7F83435134420221A7058
:1015A000D7F834350133C7F83435D7F83435042B40
:1015B000EDD907F190031846FEF7CAFDC7F83005CC
:1015C0000DE007F5A763A3F59562D7F8303513440E
:1015D00020221A70D7F830350133C7F83035D7F8E4
:1015E0003035042BEDD907F180031846FEF7B0FD26
:1015F000C7F82C050DE007F5A763A3F59762D7F8A8
:101600002C35134420221A70D7F82C350133C7F833
:101610002C35D7F82C35042BEDD907F18803184663
:10162000FEF796FDC7F828050DE007F5A763A3F5BB
:101630009662D7F82835134420221A70D7F8283537
:101640000133C7F82835D7F82835042BEDD9002108
:101650002D2000F02DFE322001F07EFB07F19803D3
:1016600001226C49184600F0B9FE322001F074FBEB
:101670000A212D2000F01CFE322001F06DFB07F145
:10168000900301226349184600F0A8FE322001F0C1
:1016900063FB14212D2000F00BFE322001F05CFBD7
:1016A00007F1800301225B49184600F097FE3220C3
:1016B00001F052FB1F212D2000F0FAFD322001F035
:1016C0004BFB07F1880301225249184600F086FEC1
:1016D000322001F041FB00F03DFD07F5A763A3F2C6
:1016E000345300221A60043360220021184606F0A9
:1016F0004AFB3B1D1846FEF72BFD03461A463B1DD1
:101700001344454A1068186092889A8007F198023D
:101710003B1D1146184606F03EFB3B1D1846FEF7E2
:1017200017FD03461A463B1D13443C4A1188927824
:1017300019809A703B1D1846FEF70AFD03461A46AB
:101740003B1D1344364A1068186092889A8007F14E
:1017500090023B1D1146184606F01DFB3B1D184626
:10176000FEF7F6FC03461A463B1D13442B4A11882C
:10177000927819809A703B1D1846FEF7E9FC0346E3
:101780001A463B1D134427491A460B4603CB1060EB
:10179000516007F188023B1D1146184606F0FBFA1E
:1017A0003B1D1846FEF7D4FC03461A463B1D134466
:1017B0001A4A1188927819809A703B1D1846FEF7D4
:1017C000C7FC03461A463B1D1344174A10681860AD
:1017D00092889A8007F180023B1D1146184606F058
:1017E000DAFA3B1D1846FEF7B3FC03461A463B1DCA
:1017F00013440A4A1188927819809A700023C7F816
:101800002435C7E090020020D802002010BD000857
:1018100018BD0008000000201CBD000824BD000801
:1018200028BD000830BD000838BD000807F5A763D3
:10183000A3F5926207F5A763A3F52773104619462F
:101840004FF4FA731A4606F076FB07F1A803184620
:10185000FFF796FCC7F814054FF00001D7F8140500
:10186000FFF724FC0346002B40F08F8007F1A8030C
:101870001846FFF747FDC7F81005D7F81405FEF71F
:10188000D3FD02460B4607F174004B4906F018FAE7
:10189000D7F81005FEF7C8FD02460B4607F16800B1
:1018A000454906F00DFA2A212D2000F001FD3220D5
:1018B00001F052FA07F1740301224049184600F082
:1018C0008DFD322001F048FA35212D2000F0F0FC8A
:1018D000322001F041FA07F1680301223749184626
:1018E00000F07CFD322001F037FA00F033FC0523D4
:1018F000C7F824353B1D1846FEF72AFC03461A4656
:101900003B1D13442E491A460B4603CB1060516011
:101910001B88138107F174023B1D1146184606F01F
:101920003AFA3B1D1846FEF713FC03461A463B1DC8
:101930001344244A1188927819809A703B1D1846E6
:10194000FEF706FC03461A463B1D13441E4A1C467E
:10195000134607CB20606160A26007F168023B1D5F
:101960001146184606F017FA3B1D1846FEF7F0FB25
:1019700003461A463B1D1344124A11889278198077
:101980009A704FF4FA5001F0E7F9D7F82435013393
:10199000C7F82435D7F82435052B7FF747AF391D15
:1019A0004FF0FF336422094804F044F841F27070AC
:1019B00001F0D2F99CE500BF40BD00080000002006
:1019C00048BD000824BD000854BD000820030020C5
:1019D00080B594B000AF07F12803282200211846F3
:1019E00006F0D1F907F1140300221A605A609A60D8
:1019F000DA601A613B1D00221A605A609A60DA6050
:101A00000123BB624FF48033FB6200237B6407F148
:101A10002803184603F0F8FA0346002B01D000F023
:101A200065F90F237B610123BB610023FB61002368
:101A30003B6200237B6207F114030021184603F088
:101A400065FD0346002B01D000F050F902237B60B6
:101A50000023FB603B1D184603F0E6FE0346002B07
:101A600001D000F043F900BF5037BD4680BD0000F3
:101A700080B584B000AF3B1D00221A605A609A60A6
:101A8000184B194A1A60174B00229A60154B002216
:101A90001A73144B00221A75124B4FF46022DA614C
:101AA000104B00225A600F4B01221A610D4801F0C1
:101AB00077F90346002B01D000F018F901237B6071
:101AC0000123BB600023FB603B1D1946054801F064
:101AD00025FB0346002B01D000F008F900BF1037AA
:101AE000BD4680BD0C0200200024014080B500AF3F
:101AF000124B134A1A60114B124A5A600F4B0022C4
:101B00009A600E4B0022DA600C4B4FF480421A614F
:101B10000A4B00225A61094B00229A61074B0022AE
:101B2000DA61064B00221A62044802F00BF9034600
:101B3000002B01D000F0DAF800BF80BD3C0200208D
:101B400000540040801A060080B500AF114B124AC5
:101B50001A60104B4FF416525A600E4B00229A60D6
:101B60000C4B0022DA600B4B00221A61094B0C224D
:101B70005A61084B00229A61064B0022DA6105483F
:101B800003F008FF0346002B01D000F0AFF800BFC0
:101B900080BD00BF900200200038014080B500AF3A
:101BA000114B124A1A60104B4FF416525A600E4BEA
:101BB00000229A600C4B0022DA600B4B00221A6163
:101BC000094B0C225A61084B00229A61064B0022F5
:101BD000DA61054803F0DEFE0346002B01D000F079
:101BE00085F800BF80BD00BFD8020020004400403F
:101BF00080B500AF114B124A1A60104B4FF41652C9
:101C00005A600E4B00229A600C4B0022DA600B4B9C
:101C100000221A61094B0C225A61084B00229A617A
:101C2000064B0022DA61054803F0B4FE0346002BA0
:101C300001D000F05BF800BF80BD00BF2003002092
:101C40000048004080B582B000AF104B5B690F4A7E
:101C500043F0010353610D4B5B6903F001037B60AB
:101C60007B68002200210F2001F0C3FC0F2001F04F
:101C7000DCFC00220021102001F0BBFC102001F050
:101C8000D4FC00BF0837BD4680BD00BF0010024035
:101C900080B485B000AF144B9B69134A43F0200316
:101CA0009361114B9B6903F02003FB60FB680E4BB3
:101CB0009B690D4A43F0040393610B4B9B6903F04E
:101CC0000403BB60BB68084B9B69074A43F00803E9
:101CD0009361054B9B6903F008037B607B6800BF41
:101CE0001437BD4680BC70470010024080B400AF7E
:101CF00072B600BFFEE7000080B588B002AF786022
:101D000039604FF4FA73009302232A4A88212A4843
:101D100002F05CF9C82001F01FF807F10C024FF443
:101D20007A73009306238821234802F04DFAC820D5
:101D300001F012F83B7B1B021AB27B7B1BB21343F0
:101D40001BB2FB82FB8A1846FEF7C4FF03461B4901
:101D50001846FFF717F8034619491846FFF7C6F863
:101D6000034618491846FEF703FF03461A467B68E8
:101D70001A60FB7B1B021AB23B7C1BB213431BB2E3
:101D8000BB82BB8A1846FEF7A5FF03460E491846DC
:101D9000FEF7F8FF03460A491846FFF7A7F803467F
:101DA0001A463B681A60C82000F0D6FF00BF1837FB
:101DB000BD4680BD080000203C02002000002F43EB
:101DC00000FF7F47000034420000C84280B588B061
:101DD00000AFF860B9607A600023FB617B681A4647
:101DE000F968B86806F0A7F80023BB61FB691F2BF0
:101DF00057DCFB69BA6813441B78422B4DD1FB6951
:101E00000133BA6813441B784D2B46D1FB6902336A
:101E1000BA6813441B78002B3BD1FB690333BA68C3
:101E200013441B781C2B34D1FB697B610AE07B696E
:101E3000BA6813441B781A46BB691344BB617B69BB
:101E400001337B61FB691D337A699A42EFDDFB69DF
:101E50001E33BA6813441B781B02FA691F32B96833
:101E60000A4412781344BA699A420DD1FB690633C9
:101E7000BA6813441B781B02FA690732B9680A442E
:101E8000127813443B6115E0FB690433FB6100BF2A
:101E90000FE0FB690233FB610BE0FB690133FB617F
:101EA000A2E70023FB617B681A46F968B86806F070
:101EB00042F899E73B6918462037BD4680BD0000CF
:101EC00080B58CB000AF34A3D3E90023C7E90A235F
:101ED0003B4801F03DF8642000F03EFF384801F037
:101EE00011F90346FB84364801F0E0F8FB8C1846F4
:101EF000FEF788FA4FF00002324BFEF7EDFA024689
:101F00000B461046194626A3D3E90023FEF70EFC24
:101F100002460B46C7E90623D7E9062322A1D1E9E9
:101F20000001FEF703FC02460B46104619464FF02F
:101F30000002254BFEF718F902460B46C7E90423B9
:101F4000D7E90A23D7E90401FEF7F0FB02460B4666
:101F5000C7E90223D7E9020108F056FD14A3D3E92B
:101F60000023FEF701F902460B461046194612A35C
:101F7000D3E90023FEF7DAFB02460B464FF00000E0
:101F8000124908F073FDC7E90001D7E900231046A4
:101F900019463037BD4680BDB81E85EB51347640BA
:101FA0000000000000FEAF40000000000088B340C9
:101FB00017D9CEF753E3F43F88855AD3BCE3E4BF87
:101FC0000C0200200000144000408F40000024401C
:101FD00080B582B000AF00F027FA44F620630122FA
:101FE00078215A4802F05CFB0346002B01D0002305
:101FF000A8E040F6C4137B6002E07B68013B7B6095
:102000007B68002BF9D1A8220021782000F086FA05
:10201000052000F0A1FE3F220021782000F07EFA8A
:10202000052000F099FED3220021782000F076FAF6
:10203000052000F091FE00220021782000F06EFAC9
:10204000052000F089FE40220021782000F066FA89
:10205000052000F081FEA1220021782000F05EFA28
:10206000052000F079FEC8220021782000F056FA01
:10207000052000F071FEDA220021782000F04EFAEF
:10208000052000F069FE81220021782000F046FA48
:10209000052000F061FE7F220021782000F03EFA4A
:1020A000052000F059FEA4220021782000F036FA25
:1020B000052000F051FEA6220021782000F02EFA23
:1020C000052000F049FED5220021782000F026FAF4
:1020D000052000F041FE80220021782000F01EFA49
:1020E000052000F039FE8D220021782000F016FA3C
:1020F000052000F031FE14220021782000F00EFAB5
:10210000052000F029FEAF220021782000F006FA19
:10211000052000F021FE2E220021782000F0FEF99B
:10212000052000F019FE002000F04CF800F012F835
:10213000074B00221A80064B00225A80044B0122D2
:102140005A71012318460837BD4680BD3C02002065
:10215000F007002080B582B000AF0023FB7126E0BD
:10216000FB79503BDBB21A460021782000F0D6F90B
:10217000052000F0F1FD00220021782000F0CEF9CA
:10218000052000F0E9FD10220021782000F0C6F9BA
:10219000052000F0E1FDFB79DB01094A1A448023A8
:1021A0004021782000F054F9FB790133FB71FB7971
:1021B000072BD5D900BF00BF0837BD4680BD00BF83
:1021C000F003002080B582B000AF0346FB71FB79BD
:1021D000002B01D1002300E0FF234FF48062194659
:1021E000034805F0D0FD00BF0837BD4680BD00BFE5
:1021F000F003002080B483B000AF0346FB800B46A1
:10220000BB801346FB70FB887F2B48D8BB883F2BD5
:1022100045D8254B1B79002B06D0FB78002B0CBF33
:1022200001230023DBB2FB70FB78012B1AD1FA8863
:10223000BB88DB0898B20346DB0113441B4AD35C1E
:102240005AB2BB8803F00703012101FA03F35BB222
:10225000134359B2FA880346DB011344C9B2134A47
:10226000D1541DE0FA88BB88DB0898B20346DB0135
:1022700013440E4AD35C5AB2BB8803F00703012112
:1022800001FA03F35BB2DB435BB2134059B2FA8845
:102290000346DB011344C9B2044AD15400E000BF35
:1022A0000C37BD4680BC7047F0070020F0030020CB
:1022B00080B483B000AF03460A46FB801346BB8060
:1022C000054AFB881380044ABB88538000BF0C3743
:1022D000BD4680BC704700BFF007002080B586B0C7
:1022E00000AF03463960FB711346BB713A4B1B8844
:1022F0001A463B681B7813447F2B07DC364B5B8800
:102300001A463B685B7813443F2B01DD00235EE0F7
:1023100000237B614BE03B685A68FB79203B3968BE
:10232000497801FB03F319467B690B445B001344B6
:102330001B88FB6000233B6130E0FA683B6902FACE
:1023400003F303F40043002B10D0234B1A883B699E
:102350009BB2134498B2204B5A887B699BB21344BA
:102360009BB2BA791946FFF745FF14E01A4B1A8859
:102370003B699BB2134498B2174B5A887B699BB256
:10238000134499B2BB79002B0CBF01230023DBB2AD
:102390001A46FFF72FFF3B6901333B613B681B780F
:1023A0001A463B699342C8D37B6901337B613B6822
:1023B0005B781A467B699342ADD3074B1A883B681A
:1023C0001B789BB213449AB2034B1A80FB791846D0
:1023D0001837BD4680BD00BFF007002080B584B02F
:1023E00000AFF860B9601346FB7112E0FB681B7820
:1023F000FA79B9681846FFF771FF03461A46FB6879
:102400001B789A4202D0FB681B7808E0FB68013316
:10241000FB60FB681B78002BE8D1FB681B78184633
:102420001037BD4680BD000080B483B000AF074BBD
:102430007B6002E07B68013B7B607B68002BF9D10D
:1024400000BF00BF0C37BD4680BC704790D0030072
:1024500090B5C7B002AF0446084607F58871A1F5EC
:1024600088710A60194607F58873A3F2091322469A
:102470001A7007F58873A3F5857302461A7007F57D
:102480008873A3F586730A461A8007F58873A3F547
:10249000827307F58872A2F5857212781A7000238C
:1024A00087F80F3115E097F80F3107F58872A2F51C
:1024B000887212681A4497F80F310133117807F5C2
:1024C0008872A2F58272D15497F80F31013387F8E0
:1024D0000F3197F80F319BB207F58872A2F586721B
:1024E00012889A42DFD807F58873A3F209131B7884
:1024F00099B207F58873A3F586731B8801339BB2E5
:1025000007F10C020A200090034801F05FFD00BFB4
:1025100007F58A77BD4690BD3C02002080B586B0A5
:1025200002AF0346FB710B46BB7113467B71BB794F
:102530003B737B797B73FB7999B207F10C020A2319
:1025400000930223034801F041FD00BF1037BD4650
:1025500080BD00BF3C02002080B500AF00210320F9
:10256000FFF7A6FE322000F0F7FB01224A494B4854
:10257000FFF734FF322000F0EFFB0A210320FFF7C2
:1025800097FE322000F0E8FB012243494448FFF760
:1025900025FF322000F0E0FB14210320FFF788FE26
:1025A000322000F0D9FB01223B493E48FFF716FFDD
:1025B000322000F0D1FB1F210320FFF779FE3220EB
:1025C00000F0CAFB012234493748FFF707FF3220E9
:1025D00000F0C2FB2A210320FFF76AFE322000F040
:1025E000BBFB01222C493148FFF7F8FE322000F0F6
:1025F000B3FB35210320FFF75BFE322000F0ACFB7C
:10260000012225492A48FFF7E9FE322000F0A4FB09
:1026100000215320FFF74CFE322000F09DFB0122E9
:102620001D492448FFF7DAFE322000F095FB0A210D
:102630005320FFF73DFE322000F08EFB01221649A9
:102640001D48FFF7CBFE322000F086FB14215320FB
:10265000FFF72EFE322000F07FFB01220E491748C3
:10266000FFF7BCFE322000F077FB1F215320FFF75D
:102670001FFE322000F070FB012207491048FFF7CF
:10268000ADFE322000F068FBFFF764FD4FF47A7076
:1026900000F062FB00BF80BD0000002060BD0008AC
:1026A00068BD000870BD000878BD000880BD000846
:1026B00088BD000890BD000894BD000898BD0008C2
:1026C000A0BD000880B485B000AF154B9B69144ACB
:1026D00043F001039361124B9B6903F00103BB605C
:1026E000BB680F4BDB690E4A43F08053D3610C4B40
:1026F000DB6903F080537B607B680A4B5B68FB609F
:10270000FB6823F0E063FB60FB6843F00073FB6051
:10271000044AFB68536000BF1437BD4680BC704755
:10272000001002400000014080B588B000AF786022
:1027300007F1100300221A605A609A60DA607B6821
:102740001B68144A934221D1134B9B69124A43F4EC
:1027500000739361104B9B6903F40073FB60FB688B
:102760000D4B9B690C4A43F0040393610A4B9B6930
:1027700003F00403BB60BB6802233B6103237B615E
:1027800007F110031946054801F058F900BF20373A
:10279000BD4680BD002401400010024000080140F9
:1027A00080B588B000AF786007F1100300221A608E
:1027B0005A609A60DA607B681B68154A934223D19D
:1027C000144B9B69134A43F008039361114B9B69B7
:1027D00003F00803FB60FB68C0233B6112237B61AD
:1027E0000323FB6107F1100319460B4801F026F99A
:1027F000084BDB69074A43F40013D361054BDB69DF
:1028000003F40013BB60BB6800BF2037BD4680BD2A
:102810000054004000100240000C014080B58CB014
:1028200000AF786007F1200300221A605A609A60B6
:10283000DA607B681B68794A934258D1784B9B6970
:10284000774A43F480439361754B9B6903F480435B
:10285000FB61FB69724B9B69714A43F0040393610E
:102860006F4B9B6903F00403BB61BB694FF40073BA
:102870003B6202237B620323FB6207F120031946BC
:10288000684801F0DBF84FF480633B6200237B6211
:102890000023BB6207F120031946624801F0CEF81D
:1028A000614B624A1A60604B00225A605E4B002204
:1028B0009A605D4B8022DA605B4B00221A615A4BB2
:1028C00000225A61584B20229A61574B0022DA614C
:1028D000554800F0C5FE0346002B01D0FFF706FA6D
:1028E0007B68514ADA63504A7B68536292E07B68A6
:1028F0001B684F4A934256D1494BDB69484A43F41F
:102900000033D361464BDB6903F400337B617B69A1
:10291000434B9B69424A43F004039361404B9B69DC
:1029200003F004033B613B6904233B6202237B62A7
:102930000323FB6207F1200319463A4801F07EF8B1
:1029400008233B6200237B620023BB6207F1200364
:102950001946344801F072F8364B374A1A60354B45
:1029600000225A60334B00229A60324B8022DA6098
:10297000304B00221A612F4B00225A612D4B20222E
:102980009A612C4B0022DA612A4800F069FE034666
:10299000002B01D0FFF7AAF97B68264ADA63254AA3
:1029A0007B68536236E07B681B68244A934231D1CE
:1029B0001B4BDB691A4A43F48023D361184BDB6954
:1029C00003F48023FB60FB68154B9B69144A43F0BA
:1029D00008039361124B9B6903F00803BB60BB685B
:1029E0004FF480633B6202237B620323FB6207F1A7
:1029F00020031946124801F021F84FF400633B62AE
:102A000000237B620023BB6207F1200319460C48B8
:102A100001F014F800BF3037BD4680BD00380140DA
:102A200000100240000801406803002058000240E6
:102A300000440040AC0300206C000240004800400D
:102A4000000C014080B400AFFEE780B400AFFEE7A9
:102A500080B400AFFEE780B400AFFEE780B400AF03
:102A6000FEE780B400AF00BFBD4680BC704780B4B5
:102A700000AF00BFBD4680BC704780B400AF00BF50
:102A8000BD4680BC704780B500AF00F049F900BF7B
:102A900080BD000080B500AF024800F09BFE00BF83
:102AA00080BD00BF6803002080B500AF024800F081
:102AB00091FE00BF80BD00BFAC03002080B400AF1A
:102AC00001231846BD4680BC704780B582B000AF78
:102AD0007860396005F0F4F9034616221A604FF069
:102AE000FF3318460837BD4680BD80B582B000AFC1
:102AF00078604FF0FF317868FFF7E7FFFEE780B5B9
:102B000086B000AFF860B9607A6000237B610AE0AC
:102B1000AFF300800146BB685A1CBA60CAB21A7093
:102B20007B6901337B617A697B689A42F0DB7B6861
:102B300018461837BD4680BD80B586B000AFF86036
:102B4000B9607A6000237B6109E0BB685A1CBA60F7
:102B50001B781846AFF300807B6901337B617A698B
:102B60007B689A42F1DB7B6818461837BD4680BD0A
:102B700080B483B000AF78604FF0FF3318460C3755
:102B8000BD4680BC704780B483B000AF78603960C8
:102B90003B684FF400525A60002318460C37BD467C
:102BA00080BC704780B483B000AF786001231846C2
:102BB0000C37BD4680BC704780B485B000AFF8606C
:102BC000B9607A60002318461437BD4680BC704750
:102BD00080B586B000AF7860144A154BD31A7B617C
:102BE0007B693B61134B1B68002B02D1114B124ACE
:102BF0001A60104B1A687B6813443A699A4207D2EC
:102C000005F05EF903460C221A604FF0FF3309E02D
:102C1000084B1B68FB60074B1A687B681344054A26
:102C20001360FB6818461837BD4680BD0050002071
:102C300000040000F80700205009002080B400AF15
:102C400000BFBD4680BC7047FFF7F8FF0B480C493A
:102C50000C4A002302E0D458C4500433C4188C42F8
:102C6000F9D3094A094C002301E013600432A2425F
:102C7000FBD305F02BF9FEF707FC7047000000209E
:102C8000F0010020A0C90008F00100204C0900203C
:102C9000FEE7000080B500AF084B1B68074A43F011
:102CA00010031360032000F099FC0F2000F008F8D7
:102CB000FFF708FD0023184680BD00BF002002403A
:102CC00080B582B000AF7860124B1A68124B1B7847
:102CD00019464FF47A73B3FBF1F3B2FBF3F31846E2
:102CE00000F0B1FC0346002B01D001230EE07B680D
:102CF0000F2B0AD8002279684FF0FF3000F079FCE2
:102D0000064A7B681360002300E001231846083759
:102D1000BD4680BD0C0000201400002010000020E3
:102D200080B400AF054B1B781A46054B1B68134453
:102D3000034A136000BFBD4680BC704714000020EA
:102D4000FC07002080B400AF024B1B681846BD464C
:102D500080BC7047FC07002080B584B000AF78606D
:102D6000FFF7F0FFB8607B68FB60FB68B3F1FF3FE3
:102D700005D00A4B1B781A46FB681344FB6000BF62
:102D8000FFF7E0FF0246BB68D31AFA689A42F7D809
:102D900000BF00BF1037BD4680BD00BF140000203B
:102DA00080B586B000AF78600023FB7500233B61DF
:102DB0000023BB600023FB607B68002B01D1012353
:102DC000BEE07B689B68002B7B689B6A002B09D167
:102DD0007B680022DA627B68002283F8242078680E
:102DE000FFF7A2FC786800F0EBFA0346FB757B68FE
:102DF0009B6A03F01003002B40F09980FB7D002BB1
:102E000040F095807B689B6A23F4885323F002038B
:102E100043F002027B689A627B685A687B68DB69D0
:102E20001A437B681B7B5B001343BA681343BB6088
:102E30007B689B68B3F5807F03D07B689B68012B20
:102E400002D14FF4807300E000233A6913433B61E1
:102E50007B681B7D012B19D17B681B7B002B09D163
:102E60007B689B69013B5A033B69134343F400634E
:102E70003B610BE07B689B6A43F020027B689A62AF
:102E80007B68DB6A43F001027B68DA627B681B685F
:102E90005B6823F469417B681B683A690A435A609E
:102EA0007B681B689A68284B13407A681268B96877
:102EB0000B4393607B689B68B3F5807F03D07B688E
:102EC0009B68012B04D17B681B69013B1B05FB60E0
:102ED0007B681B68DB6A23F470017B681B68FA68F7
:102EE0000A43DA627B681B689A68184B1340BA6819
:102EF0009A420BD17B680022DA627B689B6A23F0DE
:102F0000030343F001027B689A6218E07B689B6AC6
:102F100023F0120343F010027B689A627B68DB6A3D
:102F200043F001027B68DA620123FB7507E07B68EE
:102F30009B6A43F010027B689A620123FB75FB7D5C
:102F400018461837BD4680BDFDF7E1FFFE0E1FFF96
:102F500080B584B000AF78600023FB737B6893F882
:102F60002430012B01D1022398E07B68012283F8F1
:102F70002420786800F0CAF90346FB73FB7B002B22
:102F800040F087807B689B6A23F4407323F0010341
:102F900043F480727B689A627B681B68414A934263
:102FA00005D1414B5B6803F47023002B15D17B687E
:102FB0009B6A23F480127B689A627B681B685B685B
:102FC00003F48063002B26D07B689B6A23F4405374
:102FD00043F480527B689A621DE07B689B6A43F4ED
:102FE00080127B689A627B681B682F4A934204D0E8
:102FF0007B681B682B4A93420DD12B4B5B6803F413
:103000008063002B07D07B689B6A23F4405343F412
:1030100080527B689A627B689B6A03F48053002B22
:1030200006D07B68DB6A23F006027B68DA6202E086
:103030007B680022DA627B68002283F824207B68A8
:103040001B686FF002021A607B681B689B6803F4C0
:103050006023B3F5602F13D17B681B68114A93423C
:1030600005D1114B5B6803F47023002B08D17B68FA
:103070001B689A687B681B6842F4A0029A600CE0A7
:103080007B681B689A687B681B6842F480129A60B0
:1030900003E07B68002283F82420FB7B184610376E
:1030A000BD4680BD002801400024014080B584B0A9
:1030B00000AF78600023FB737B6893F82430012B0A
:1030C00001D102231AE07B68012283F8242078686A
:1030D00000F076F90346FB73FB7B002B09D17B687C
:1030E0009B6A23F4885323F0010343F001027B68B9
:1030F0009A627B68002283F82420FB7B18461037F5
:10310000BD4680BD80B483B000AF78607B681B682B
:10311000DB6C18460C37BD4680BC704780B485B068
:1031200000AF786039600023FB730023BB607B68CD
:1031300093F82430012B01D10223DCE07B680122CB
:1031400083F824203B685B68062B1CD87B681B68CF
:10315000596B3B685A6813469B001344053B1F227A
:1031600002FA03F3DB4319403B6818683B685A686E
:1031700013469B001344053B00FA03F27B681B686F
:103180000A435A633CE03B685B680C2B1CD87B68A5
:103190001B68196B3B685A6813469B001344233B1A
:1031A0001F2202FA03F3DB4319403B6818683B68AF
:1031B0005A6813469B001344233B00FA03F27B68D2
:1031C0001B680A431A631BE07B681B68D96A3B686B
:1031D0005A6813469B001344413B1F2202FA03F333
:1031E000DB4319403B6818683B685A6813469B00EC
:1031F0001344413B00FA03F27B681B680A43DA621E
:103200003B681B68092B1CD97B681B68D9683B6825
:103210001A6813465B0013441E3B072202FA03F3AD
:10322000DB4319403B6898683B681A6813465B00AB
:1032300013441E3B00FA03F27B681B680A43DA6002
:1032400019E07B681B6819693B681A6813465B00C4
:103250001344072202FA03F3DB4319403B689868E2
:103260003B681A6813465B00134400FA03F27B685C
:103270001B680A431A613B681B68102B03D03B682C
:103280001B68112B32D17B681B681D4A934225D1E4
:103290007B681B689B6803F40003002B26D17B68C6
:1032A0001B689A687B681B6842F400029A603B685E
:1032B0001B68102B1AD1134B1B68134AA2FB032364
:1032C0009A0C13469B0013445B00BB6002E0BB6892
:1032D000013BBB60BB68002BF9D107E07B689B6AB0
:1032E00043F020027B689A620123FB737B68002213
:1032F00083F82420FB7B18461437BD4680BC7047FA
:10330000002401400C00002083DE1B4380B584B004
:1033100000AF78600023FB600023BB607B681B6804
:103320009B6803F00103012B40D07B681B689A68FF
:103330007B681B6842F001029A601F4B1B681F4AA2
:10334000A2FB03239B0CBB6002E0BB68013BBB609C
:10335000BB68002BF9D1FFF7F5FCF8601FE0FFF721
:10336000F1FC0246FB68D31A022B18D97B681B6854
:103370009B6803F00103012B11D07B689B6A43F02B
:1033800010027B689A627B68DB6A43F001027B680B
:10339000DA627B68002283F82420012307E07B683F
:1033A0001B689B6803F00103012BD8D1002318464A
:1033B0001037BD4680BD00BF0C00002083DE1B43DC
:1033C00080B584B000AF78600023FB607B681B6829
:1033D0009B6803F00103012B2ED17B681B689A6860
:1033E0007B681B6822F001029A60FFF7ABFCF86073
:1033F0001BE0FFF7A7FC0246FB68D31A022B14D987
:103400007B681B689B6803F00103012B0DD17B686F
:103410009B6A43F010027B689A627B68DB6A43F028
:1034200001027B68DA62012307E07B681B689B6806
:1034300003F00103012BDCD0002318461037BD46F2
:1034400080BD000080B485B000AF78607B6803F079
:103450000703FB600C4BDB68BB60BA684FF6FF03E9
:103460001340BB60FB681A02BB68134343F0BF63A1
:1034700043F40033BB60044ABB68D36000BF143719
:10348000BD4680BC704700BF00ED00E080B400AFD7
:10349000044BDB681B0A03F007031846BD4680BCDB
:1034A000704700BF00ED00E080B483B000AF03467A
:1034B000FB7197F90730002B0BDBFB7903F01F0240
:1034C000064997F907305B09012000FA02F241F83A
:1034D000232000BF0C37BD4680BC704700E100E0F0
:1034E00080B483B000AF03463960FB7197F90730B1
:1034F000002B0ADB3B68DAB20C4997F9073012015E
:10350000D2B20B4483F800230AE03B68DAB20849E0
:10351000FB7903F00F03043B1201D2B20B441A767D
:1035200000BF0C37BD4680BC704700BF00E100E023
:1035300000ED00E080B489B000AFF860B9607A6057
:10354000FB6803F00703FB61FB69C3F10703042B6E
:1035500028BF0423BB61FB690433062B02D9FB6936
:10356000033B00E000237B614FF0FF32BB6902FAAE
:1035700003F3DA43BB681A407B699A404FF0FF318E
:103580007B6901FA03F3D9437B680B401343184668
:103590002437BD4680BC704780B582B000AF7860EC
:1035A0007B68013BB3F1807F01D301230FE00A4A1E
:1035B0007B68013B53600F214FF0FF30FFF790FF16
:1035C000054B00229A60044B07221A60002318461C
:1035D0000837BD4680BD00BF10E000E080B582B076
:1035E00000AF78607868FFF72DFF00BF0837BD4651
:1035F00080BD80B586B000AF0346B9607A60FB73CA
:1036000000237B61FFF742FF78617A68B9687869C7
:10361000FFF790FF024697F90F3011461846FFF763
:103620005FFF00BF1837BD4680BD80B582B000AFD8
:103630000346FB7197F907301846FFF735FF00BFC7
:103640000837BD4680BD80B582B000AF786078682D
:10365000FFF7A2FF034618460837BD4680BD0000AD
:1036600080B485B000AF78600023FB607B68002BDE
:1036700001D1012343E07B681B681A46224B1344A7
:10368000224AA2FB03231B099A007B681A647B6809
:103690001F4ADA637B68022283F821207B681B685B
:1036A0001B68FB60FB6823F47F5323F03003FB604F
:1036B0007B685A687B689B681A437B68DB681A439F
:1036C0007B681B691A437B685B691A437B689B694B
:1036D0001A437B68DB691343FA681343FB607B681A
:1036E0001B68FA681A607B6800229A637B68012273
:1036F00083F821207B68002283F8202000231846CD
:103700001437BD4680BC7047F8FFFDBFCDCCCCCC94
:103710000000024080B586B000AFF860B9607A6002
:103720003B600023FB75FB6893F82030012B01D12F
:1037300002234BE0FB68012283F82020FB6893F80A
:103740002130DBB2012B3AD1FB68022283F8212021
:10375000FB6800229A63FB681B681A68FB681B6899
:1037600022F001021A603B687A68B968F86800F0D4
:1037700037F9FB68DB6A002B08D0FB681B681A6806
:10378000FB681B6842F00E021A600FE0FB681B68C2
:103790001A68FB681B6822F004021A60FB681B6849
:1037A0001A68FB681B6842F00A021A60FB681B6813
:1037B0001A68FB681B6842F001021A6005E0FB68AA
:1037C000002283F820200223FB75FB7D1846183762
:1037D000BD4680BD80B584B000AF78607B68DB6B90
:1037E0001B68FB607B681B681B68BB607B681B6C8D
:1037F00004229A40FB681340002B4FD0BB6803F0B3
:103800000403002B4AD07B681B681B6803F020036D
:10381000002B07D17B681B681A687B681B6822F045
:1038200004021A607B681B68664A934229D07B6851
:103830001B68654A934222D07B681B68634A9342A7
:103840001AD07B681B68624A934212D07B681B685F
:10385000604A93420AD07B681B685F4A934202D158
:103860004FF480030EE04FF080630BE04FF48023B1
:1038700008E04FF4804305E04FF4806302E040230A
:1038800000E00423554A53607B68DB6A002B00F09C
:1038900094807B68DB6A786898478EE07B681B6C55
:1038A00002229A40FB681340002B56D0BB6803F0FD
:1038B0000203002B51D07B681B681B6803F02003B8
:1038C000002B0BD17B681B681A687B681B6822F091
:1038D0000A021A607B68012283F821207B681B683A
:1038E000384A934229D07B681B68374A934222D0DA
:1038F0007B681B68354A93421AD07B681B68344A40
:10390000934212D07B681B68324A93420AD07B688C
:103910001B68314A934202D14FF400130EE04FF07E
:1039200000730BE04FF4003308E04FF4005305E060
:103930004FF4007302E0202300E00223274A536083
:103940007B68002283F820207B689B6A002B34D0A0
:103950007B689B6A786898472FE07B681B6C08221D
:103960009A40FB681340002B28D0BB6803F0080383
:10397000002B23D07B681B681A687B681B6822F0C9
:103980000E021A607B681A6C7B68DB6B012101FAFE
:1039900002F25A607B6801229A637B68012283F8F5
:1039A00021207B68002283F820207B681B6B002B82
:1039B00004D07B681B6B7868984700BF00BF103746
:1039C000BD4680BD080002401C000240300002409D
:1039D00044000240580002406C00024000000240D7
:1039E00080B485B000AFF860B9607A603B60FB6876
:1039F0001A6CFB68DB6B012101FA02F25A60FB686A
:103A00001B683A685A60FB685B68102B08D1FB683A
:103A10001B687A689A60FB681B68BA68DA6007E01E
:103A2000FB681B68BA689A60FB681B687A68DA6092
:103A300000BF1437BD4680BC7047000080B48BB017
:103A400000AF7860396000237B6200233B6269E14C
:103A500001227B6A02FA03F3FB613B681B68FA6987
:103A60001340BB61BA69FB699A4240F058813B68D8
:103A70005B689A4A93425ED0984A934275D8984AB6
:103A8000934258D0964A93426FD8964A934252D066
:103A9000944A934269D8944A93424CD0924A9342B2
:103AA00063D8924A934246D0904A93425DD8122BF3
:103AB0002AD8122B59D801A252F823F0373B00081C
:103AC000113B0008233B0008653B00086B3B0008E6
:103AD0006B3B00086B3B00086B3B00086B3B00082E
:103AE0006B3B00086B3B00086B3B00086B3B00081E
:103AF0006B3B00086B3B00086B3B00086B3B00080E
:103B0000193B00082D3B0008794A934213D02CE062
:103B10003B68DB683B6229E03B68DB6804333B625F
:103B200024E03B68DB6808333B621FE03B68DB68EE
:103B30000C333B621AE03B689B68002B02D10423E4
:103B40003B6213E03B689B68012B05D108233B6275
:103B50007B68FA691A6109E008233B627B68FA69AD
:103B60005A6103E000233B6200E000BFBB69FF2B0A
:103B700001D87B6801E07B6804337B61BB69FF2B64
:103B800002D87B6A9B0002E07B6A083B9B003B619A
:103B90007B691A680F213B6901FA03F3DB431A4082
:103BA000396A3B6901FA03F31A437B691A603B687F
:103BB0005B6803F08053002B00F0B1804D4B9B6994
:103BC0004C4A43F0010393614A4B9B6903F00103A4
:103BD000BB60BB68484A7B6A9B08023352F82330BB
:103BE000FB607B6A03F003039B000F2202FA03F3DE
:103BF000DB43FA681340FB607B68404A934213D072
:103C00007B683F4A93420DD07B683E4A934207D07F
:103C10007B683D4A934201D1032306E0042304E07C
:103C2000022302E0012300E000237A6A02F003028B
:103C300092009340FA681343FB602F497B6A9B080C
:103C40000233FA6841F823203B685B6803F4801371
:103C5000002B06D02D4B9A682C49BB6913438B600F
:103C600006E02A4B9A68BB69DB43284913408B6006
:103C70003B685B6803F40013002B06D0234BDA6823
:103C80002249BB691343CB6006E0204BDA68BB696D
:103C9000DB431E491340CB603B685B6803F4003391
:103CA000002B06D0194B5A681849BB6913434B6067
:103CB00006E0164B5A68BB69DB43144913404B605E
:103CC0003B685B6803F48033002B21D00F4B1A68EC
:103CD0000E49BB6913430B6021E000BF00003210A6
:103CE000000031100000221000002110000012100E
:103CF00000001110001002400000014000080140C7
:103D0000000C01400010014000140140000401407B
:103D10000B4B1A68BB69DB43094913400B607B6A94
:103D200001337B623B681A687B6A22FA03F3002B3B
:103D30007FF48EAE00BF00BF2C37BD4680BC7047FD
:103D40000004014080B584B000AF78607B68002B30
:103D500001D101232BE17B6893F83D30DBB2002BCE
:103D600006D17B68002283F83C207868FEF718FDB6
:103D70007B68242283F83D207B681B681A687B6877
:103D80001B6822F001021A607B681B681A687B6856
:103D90001B6842F400421A607B681B681A687B68E3
:103DA0001B6822F400421A6001F0F8FCF8607B689E
:103DB0005B68814A934207D8FB68804A934294BF6C
:103DC00001230023DBB206E0FB687D4A934294BFE7
:103DD00001230023DBB2002B01D00123E7E0FB68C5
:103DE000784AA2FB03239B0CBB607B681B685B6863
:103DF00023F03F017B681B68BA680A435A607B68FE
:103E00001B681B6A23F03F017B685B686A4A934228
:103E100002D8BB68013309E0BB684FF4967202FB1D
:103E200003F3694AA2FB03239B0901337A681268F2
:103E30000B4313627B681B68DB6923F44F4222F05B
:103E4000FF027B685B685C498B4219D8FB68591E8E
:103E50007B685B685B00B1FBF3F3591C40F6FC73B5
:103E60000B40002B0AD0FB68591E7B685B685B0027
:103E7000B1FBF3F30133C3F30B0351E004234FE031
:103E80007B689B68002B11D1FB68581E7B685968C2
:103E90000B465B000B44B0FBF3F30133C3F30B039E
:103EA000002B0CBF01230023DBB212E0FB68581E7D
:103EB0007B6859680B469B000B4499000B44B0FB90
:103EC000F3F30133C3F30B03002B0CBF01230023D7
:103ED000DBB2002B01D0012322E07B689B68002B22
:103EE0000ED1FB68581E7B6859680B465B000B447B
:103EF000B0FBF3F30133C3F30B0343F400430FE0D0
:103F0000FB68581E7B6859680B469B000B44990060
:103F10000B44B0FBF3F30133C3F30B0343F440430F
:103F2000796809681343CB617B681B681B6823F0C1
:103F3000C0017B68DA697B681B6A1A437B681B686F
:103F40000A431A607B681B689B6823F4034323F0D1
:103F5000FF037A6811697A68D26811437A68126837
:103F60000B4393607B681B68DB6823F0FF017B6871
:103F70005A697B689B691A437B681B680A43DA604D
:103F80007B681B681A687B681B6842F001021A6034
:103F90007B6800221A647B68202283F83D207B68BE
:103FA00000221A637B68002283F83E200023184613
:103FB0001037BD4680BD00BFA08601007F841E0073
:103FC000FF083D0083DE1B43D34D621080B588B0EF
:103FD00002AFF8607A601A460B467B8113463B813C
:103FE000FEF7B0FE7861FB6893F83D30DBB2202B22
:103FF00040F0E0807B690093192301227049F86842
:1040000000F0CCFD0346002B01D00223D3E0FB6877
:1040100093F83C30012B01D10223CCE0FB68012254
:1040200083F83C20FB681B681B6803F00103012B2D
:1040300007D0FB681B681A68FB681B6842F0010226
:104040001A60FB681B681A68FB681B6822F4006230
:104050001A60FB68212283F83D20FB68102283F858
:104060003E20FB6800221A64FB687A685A62FB688B
:104070003A895A85FB685B8D9AB2FB681A85FB68A2
:10408000504ADA6279897B693A6AF86800F036FC4E
:104090000346002B01D001238DE000233B61FB6828
:1040A0001B685B693B61FB681B689B693B613B6903
:1040B00066E07A69396AF86800F08AFE0346002BE8
:1040C0000DD0FB681B6C042B07D1FB681B681A68BA
:1040D000FB681B6842F400721A6001236BE0FB6806
:1040E0005B6A1A78FB681B681A61FB685B6A5A1C7A
:1040F000FB685A62FB685B8D9BB2013B9AB2FB681E
:104100005A85FB681B8D013B9AB2FB681A85FB68D8
:104110001B685B6903F00403042B1BD1FB681B8D38
:10412000002B17D0FB685B6A1A78FB681B681A6162
:10413000FB685B6A5A1CFB685A62FB685B8D9BB22A
:10414000013B9AB2FB685A85FB681B8D013B9AB212
:10415000FB681A857A69396AF86800F081FE0346BF
:10416000002B0DD0FB681B6C042B07D1FB681B6870
:104170001A68FB681B6842F400721A6001231AE097
:10418000FB681B8D002B94D1FB681B681A68FB68C9
:104190001B6842F400721A60FB68202283F83D20FD
:1041A000FB68002283F83E20FB68002283F83C2055
:1041B000002300E0022318461837BD4680BD00BF2B
:1041C000020010000000FFFF80B58CB002AFF86065
:1041D0007A601A460B467B8113463B8100233B6283
:1041E000FEF7B0FD7862FB6893F83D30DBB2202B20
:1041F00040F04B827B6A0093192301227F49F868C3
:1042000000F0CCFC0346002B01D002233EE2FB6809
:1042100093F83C30012B01D1022337E2FB680122E5
:1042200083F83C20FB681B681B6803F00103012B2B
:1042300007D0FB681B681A68FB681B6842F0010224
:104240001A60FB681B681A68FB681B6822F400622E
:104250001A60FB68222283F83D20FB68102283F855
:104260003E20FB6800221A64FB687A685A62FB6889
:104270003A895A85FB685B8D9AB2FB681A85FB68A0
:104280005F4ADA6279897B6A3A6BF86800F0B8FBBA
:104290000346002B01D00123F8E1FB681B8D002BA6
:1042A00013D10023FB61FB681B685B69FB61FB6842
:1042B0001B689B69FB61FB69FB681B681A68FB68EC
:1042C0001B6842F400721A60CCE1FB681B8D012B65
:1042D0001ED1FB681B681A68FB681B6822F48062A9
:1042E0001A6072B600BF0023BB61FB681B685B6984
:1042F000BB61FB681B689B69BB61BB69FB681B6892
:104300001A68FB681B6842F400721A6062B635E0F6
:10431000FB681B8D022B1ED1FB681B681A68FB68AB
:104320001B6842F400621A6072B600BF00237B6112
:10433000FB681B685B697B61FB681B689B697B6131
:104340007B69FB681B681A68FB681B6822F4806243
:104350001A6062B612E0FB681B681A68FB681B688B
:1043600042F480621A6000233B61FB681B685B6952
:104370003B61FB681B689B693B613B6972E1FB68C1
:104380001B8D032B00F21F81FB681B8D012B23D19A
:104390007A6A396BF86800F0ABFD0346002B01D058
:1043A000012373E1FB681B681A69FB685B6AD2B280
:1043B0001A70FB685B6A5A1CFB685A62FB681B8DAB
:1043C000013B9AB2FB681A85FB685B8D9BB2013B8F
:1043D0009AB2FB685A8545E1FB681B8D022B52D1CE
:1043E0007B6A00933B6B00220649F86800F0D6FB1D
:1043F0000346002B08D0012348E100BF0200100053
:104400000000FFFF0400010072B600BFFB681B68DC
:104410001A68FB681B6842F400721A60FB681B682C
:104420001A69FB685B6AD2B21A70FB685B6A5A1C35
:10443000FB685A62FB681B8D013B9AB2FB681A85C8
:10444000FB685B8D9BB2013B9AB2FB685A8562B6F2
:1044500000BFFB681B681A69FB685B6AD2B21A70FE
:10446000FB685B6A5A1CFB685A62FB681B8D013B48
:104470009AB2FB681A85FB685B8D9BB2013B9AB2CE
:10448000FB685A85EEE07B6A00933B6B0022814912
:10449000F86800F083FB0346002B01D00123F5E010
:1044A000FB681B681A68FB681B6822F480621A604C
:1044B00072B600BFFB681B681A69FB685B6AD2B200
:1044C0001A70FB685B6A5A1CFB685A62FB681B8D9A
:1044D000013B9AB2FB681A85FB685B8D9BB2013B7E
:1044E0009AB2FB685A856C4B1B68DB086B4AA2FBCF
:1044F00003231A0A13469B001344DA00D31A3B62C3
:104500003B6A013B3B623B6A002B18D1FB680022EF
:104510001A63FB68202283F83D20FB68002283F8A1
:104520003E20FB681B6C43F02002FB681A6462B6F5
:1045300000BFFB68002283F83C200123A6E0FB6853
:104540001B685B6903F00403042BD9D1FB681B686B
:104550001A68FB681B6842F400721A60FB681B68EB
:104560001A69FB685B6AD2B21A70FB685B6A5A1CF4
:10457000FB685A62FB681B8D013B9AB2FB681A8587
:10458000FB685B8D9BB2013B9AB2FB685A8562B6B1
:1045900000BFFB681B681A69FB685B6AD2B21A70BD
:1045A000FB685B6A5A1CFB685A62FB681B8D013B07
:1045B0009AB2FB681A85FB685B8D9BB2013B9AB28D
:1045C000FB685A854EE07A6A396BF86800F090FC17
:1045D0000346002B01D0012358E0FB681B681A69D1
:1045E000FB685B6AD2B21A70FB685B6A5A1CFB6894
:1045F0005A62FB681B8D013B9AB2FB681A85FB6807
:104600005B8D9BB2013B9AB2FB685A85FB681B68C5
:104610005B6903F00403042B24D1FB681B8D032B7F
:1046200007D1FB681B681A68FB681B6822F480626C
:104630001A60FB681B681A69FB685B6AD2B21A7061
:10464000FB685B6A5A1CFB685A62FB681B8D013B66
:104650009AB2FB681A85FB685B8D9BB2013B9AB2EC
:10466000FB685A85FB681B8D002B7FF488AEFB68C6
:10467000202283F83D20FB68002283F83E20FB685F
:10468000002283F83C20002300E00223184628374C
:10469000BD4680BD040001000C00002089B5F8145F
:1046A00080B58AB002AFF8607A603B600B467B81D0
:1046B000FEF748FBF8610023BB61FB6893F83D30CF
:1046C000DBB2202B40F01181FB69009319230122FA
:1046D0008849F86800F062FA0346002B01D00223F3
:1046E00004E1FB6893F83C30012B01D10223FDE08B
:1046F000FB68012283F83C20FB681B681B6803F001
:104700000103012B07D0FB681B681A68FB681B6854
:1047100042F001021A60FB681B681A68FB681B689C
:1047200022F400621A60FB68242283F83D20FB68B3
:1047300000221A64FB68704ADA62FB681B681A6818
:10474000FB681B6842F480721A60FB6900933B6847
:1047500000224FF00111F86800F020FA0346002B08
:104760000DD0FB681B681B6803F48073B3F5807F72
:1047700003D1FB684FF400721A640323B6E07B890F
:10478000DBB21A46FB681B6802F0FE021A61FEF7F4
:10479000D9FAF861FB681B685B6903F00203022B1E
:1047A0000CBF01230023DBB2FB75FB681B685B6950
:1047B00003F48063B3F5806F0CBF01230023DBB2E9
:1047C000BB7525E0FEF7BEFA0246FB69D31A3A68CC
:1047D0009A4202D33B68002B03D1FB68A02283F8E6
:1047E0003D20FB681B685B6903F00203022B0CBFD2
:1047F00001230023DBB2FB75FB681B685B6903F4D4
:104800008063B3F5806F0CBF01230023DBB2BB755F
:10481000FB6893F83D30DBB2A02B05D0FB7D002B6D
:1048200002D1BB7D002BCDD0FB68202283F83D2038
:10483000FB681B685B6903F00203022B29D1FB684C
:104840001B681A68FB681B6842F400721A60002338
:104850003B61FB681B685B693B61FB681B689B698C
:104860003B613B69FB690093192301222149F868E8
:1048700000F094F90346002B01D0012336E0FB68D9
:10488000202283F83D20FB68002283F83C2000238F
:104890002CE0FB681B681A68FB681B6842F4007216
:1048A0001A60FB681B686FF480625A61FB690093B1
:1048B000192301220F49F86800F070F90346002B14
:1048C00001D0012312E0BB690133BB61BA697B6887
:1048D0009A42FFF432AFFB68202283F83D20FB6848
:1048E000002283F83C20012300E0022318462037F1
:1048F000BD4680BD020010000000FFFF80B588B0FB
:1049000002AFF8607A603B600B467B81FB68DB6A34
:104910007B617B69082B06D07B69012B03D07B6907
:1049200013F5803F08D1FB681B681A68FB681B6899
:1049300042F480721A600BE0FB681B6B122B07D1EC
:10494000FB681B681A68FB681B6842F480721A6077
:104950003B6800937B6800224FF00111F86800F07B
:104960001DF90346002B0DD0FB681B681B6803F480
:104970008073B3F5807F03D1FB684FF400721A6433
:10498000032335E0FB681B69B3F5804F08D17B89B1
:10499000DBB21A46FB681B6802F0FE021A611BE0DC
:1049A0007B89DB11DBB203F00603DBB263F00F039C
:1049B000DAB2FB681B681A613B687A680E49F868CE
:1049C00000F066F90346002B01D0012310E07B893B
:1049D000DAB2FB681B681A613B687A680749F868B5
:1049E00000F056F90346002B01D0012300E000231C
:1049F00018461837BD4680BD0800010002000100BE
:104A000080B588B002AFF8607A603B600B467B816E
:104A1000FB68DB6A7B61FB681B681A68FB681B68C4
:104A200042F480621A607B69082B06D07B69012BF7
:104A300003D07B6913F5803F08D1FB681B681A68B7
:104A4000FB681B6842F480721A600BE0FB681B6B0A
:104A5000112B07D1FB681B681A68FB681B6842F4BE
:104A600080721A603B6800937B6800224FF001114E
:104A7000F86800F093F80346002B0DD0FB681B6824
:104A80001B6803F48073B3F5807F03D1FB684FF498
:104A900000721A64032379E0FB681B69B3F5804F49
:104AA00008D17B89DBB243F00103DAB2FB681B68F3
:104AB0001A615FE07B89DB11DBB203F00603DBB236
:104AC00063F00F03DAB2FB681B681A613B687A680F
:104AD0003049F86800F0DCF80346002B01D00123D0
:104AE00054E07B89DAB2FB681B681A613B687A681C
:104AF0002949F86800F0CCF80346002B01D00123C7
:104B000044E000233B61FB681B685B693B61FB6819
:104B10001B689B693B613B69FB681B681A68FB6803
:104B20001B6842F480721A603B6800937B68002225
:104B30004FF00111F86800F031F80346002B0DD05A
:104B4000FB681B681B6803F48073B3F5807F03D197
:104B5000FB684FF400721A64032317E07B89DB11B2
:104B6000DBB203F00603DBB263F00E03DAB2FB68DC
:104B70001B681A613B687A680749F86800F088F892
:104B80000346002B01D0012300E00023184618370C
:104B9000BD4680BD080001000200010080B584B060
:104BA00000AFF860B9603B601346FB7148E03B68BA
:104BB000B3F1FF3F44D0FEF7C5F80246BB69D31AF4
:104BC0003A689A4202D33B68002B39D1BB681B0C70
:104BD000DBB2012B0DD1FB681B685B69DA43BB6854
:104BE00013409BB2002B0CBF01230023DBB21A46FB
:104BF0000CE0FB681B689B69DA43BB6813409BB2FF
:104C0000002B0CBF01230023DBB21A46FB799A422A
:104C100016D1FB6800221A63FB68202283F83D202E
:104C2000FB68002283F83E20FB681B6C43F02002E7
:104C3000FB681A64FB68002283F83C20012323E010
:104C4000BB681B0CDBB2012B0DD1FB681B685B69D9
:104C5000DA43BB6813409BB2002B0CBF0123002337
:104C6000DBB21A460CE0FB681B689B69DA43BB6841
:104C700013409BB2002B0CBF01230023DBB21A466A
:104C8000FB799A4293D0002318461037BD4680BD69
:104C900080B584B000AFF860B9607A603B6071E0C5
:104CA000FB681B685B6903F48063B3F5806F23D1F5
:104CB000FB681B681A68FB681B6842F400721A6084
:104CC000FB681B686FF480625A61FB6800221A63FC
:104CD000FB68202283F83D20FB68002283F83E20F9
:104CE000FB681B6C43F00402FB681A64FB6800223B
:104CF00083F83C20012367E07B68B3F1FF3F41D09C
:104D0000FEF720F802463B68D31A7A689A4202D32B
:104D10007B68002B36D1BB681B0CDBB2012B0CD19E
:104D2000FB681B685B69DA43BB6813409BB2002BCE
:104D300014BF01230023DBB20BE0FB681B689B69F7
:104D4000DA43BB6813409BB2002B14BF012300233E
:104D5000DBB2002B16D0FB6800221A63FB6820220E
:104D600083F83D20FB68002283F83E20FB681B6C23
:104D700043F02002FB681A64FB68002283F83C20A1
:104D8000012321E0BB681B0CDBB2012B0CD1FB68BB
:104D90001B685B69DA43BB6813409BB2002B14BFEE
:104DA00001230023DBB20BE0FB681B689B69DA433D
:104DB000BB6813409BB2002B14BF01230023DBB25E
:104DC000002B7FF46DAF002318461037BD4680BD21
:104DD00080B584B000AFF860B9607A6034E0F868FC
:104DE00000F0E3F80346002B01D0012334E0BB6858
:104DF000B3F1FF3F28D0FDF7A5FF02467B68D31A29
:104E0000BA689A4202D3BB68002B1DD1FB681B68AD
:104E10005B6903F08003802B16D0FB6800221A63C5
:104E2000FB68202283F83D20FB68002283F83E20A7
:104E3000FB681B6C43F02002FB681A64FB680022CD
:104E400083F83C20012307E0FB681B685B6903F0E3
:104E50008003802BC3D1002318461037BD4680BD88
:104E600080B584B000AFF860B9607A6034E0F8686B
:104E700000F09BF80346002B01D0012334E0BB680F
:104E8000B3F1FF3F28D0FDF75DFF02467B68D31AE0
:104E9000BA689A4202D3BB68002B1DD1FB681B681D
:104EA0005B6903F00403042B16D0FB6800221A632D
:104EB000FB68202283F83D20FB68002283F83E2017
:104EC000FB681B6C43F02002FB681A64FB6800223D
:104ED00083F83C20012307E0FB681B685B6903F053
:104EE0000403042BC3D1002318461037BD4680BDF0
:104EF00080B584B000AFF860B9607A6049E0FB68C3
:104F00001B685B6903F01003102B19D1FB681B6849
:104F10006FF010025A61FB6800221A63FB682022BE
:104F200083F83D20FB68002283F83E20FB681A6C62
:104F3000FB681A64FB68002283F83C20012330E000
:104F4000FDF700FF02467B68D31ABA689A4202D383
:104F5000BB68002B1DD1FB681B685B6903F0400335
:104F6000402B16D0FB6800221A63FB68202283F8CE
:104F70003D20FB68002283F83E20FB681B6C43F059
:104F80002002FB681A64FB68002283F83C2001239E
:104F900007E0FB681B685B6903F04003402BAED160
:104FA000002318461037BD4680BD80B483B000AFE3
:104FB00078607B681B685B6903F48063B3F5806F7E
:104FC0001BD17B681B686FF480625A617B6800228A
:104FD0001A637B68202283F83D207B68002283F8D7
:104FE0003E207B681B6C43F004027B681A647B687C
:104FF000002283F83C20012300E0002318460C37F0
:10500000BD4680BC7047000080B586B000AF7860B8
:105010007B68002B01D1012372E27B681B6803F0DF
:105020000103002B00F08780924B5B6803F00C03B8
:10503000042B0CD08F4B5B6803F00C03082B12D1B0
:105040008C4B5B6803F48033B3F5803F0BD1894B05
:105050001B6803F40033002B6CD07B685B68002B6B
:1050600068D101234CE27B685B68B3F5803F06D1D1
:10507000804B1B687F4A43F4803313602EE07B68CB
:105080005B68002B0CD17B4B1B687A4A23F480337E
:105090001360784B1B68774A23F4802313601DE06C
:1050A0007B685B68B3F5A02F0CD1724B1B68714A0B
:1050B00043F4802313606F4B1B686E4A43F48033C4
:1050C00013600BE06B4B1B686A4A23F48033136058
:1050D000684B1B68674A23F4802313607B685B6816
:1050E000002B13D0FDF72EFE386108E0FDF72AFEF5
:1050F00002463B69D31A642B01D9032300E25D4BBE
:105100001B6803F40033002BF0D014E0FDF71AFE07
:10511000386108E0FDF716FE02463B69D31A642B9E
:1051200001D90323ECE1534B1B6803F40033002B3C
:10513000F0D100E000BF7B681B6803F00203002B86
:1051400063D04C4B5B6803F00C03002B0BD0494B36
:105150005B6803F00C03082B1CD1464B5B6803F41F
:105160008033002B16D1434B1B6803F00203002B46
:1051700005D07B681B69012B01D00123C0E13D4BA9
:105180001B6823F0F8027B685B69DB003949134335
:105190000B603AE07B681B69002B20D0364B012264
:1051A0001A60FDF7CFFD386108E0FDF7CBFD024640
:1051B0003B69D31A022B01D90323A1E12D4B1B68B4
:1051C00003F00203002BF0D02A4B1B6823F0F802F7
:1051D0007B685B69DB00274913430B6015E0264BB6
:1051E00000221A60FDF7AEFD386108E0FDF7AAFD68
:1051F00002463B69D31A022B01D9032380E11D4BE0
:105200001B6803F00203002BF0D17B681B6803F0DE
:105210000803002B3AD07B689B69002B19D0174BF1
:1052200001221A60FDF78EFD386108E0FDF78AFD66
:1052300002463B69D31A022B01D9032360E10D4BCF
:105240005B6A03F00203002BF0D0012000F0CEFADD
:105250001CE00A4B00221A60FDF774FD38610FE074
:10526000FDF770FD02463B69D31A022B08D90323D0
:1052700046E100BF0010024000004242800442426A
:10528000924B5B6A03F00203002BE9D17B681B6839
:1052900003F00403002B00F0A6800023FB758B4B6A
:1052A000DB6903F08053002B0DD1884BDB69874A03
:1052B00043F08053D361854BDB6903F08053BB60BF
:1052C000BB680123FB75824B1B6803F48073002BC2
:1052D00018D17F4B1B687E4A43F480731360FDF73F
:1052E00031FD386108E0FDF72DFD02463B69D31A18
:1052F000642B01D9032303E1754B1B6803F480730E
:10530000002BF0D07B68DB68012B06D16F4B1B6A4A
:105310006E4A43F0010313622DE07B68DB68002BCB
:105320000CD16A4B1B6A694A23F001031362674B75
:105330001B6A664A23F0040313621CE07B68DB6887
:10534000052B0CD1614B1B6A604A43F004031362C6
:105350005E4B1B6A5D4A43F0010313620BE05B4B3B
:105360001B6A5A4A23F001031362584B1B6A574ABF
:1053700023F0040313627B68DB68002B15D0FDF774
:10538000E1FC38610AE0FDF7DDFC02463B69D31A17
:1053900041F28832934201D90323B1E04B4B1B6A9F
:1053A00003F00203002BEED014E0FDF7CBFC3861D4
:1053B0000AE0FDF7C7FC02463B69D31A41F2883286
:1053C000934201D903239BE0404B1B6A03F0020385
:1053D000002BEED1FB7D012B05D13C4BDB693B4A19
:1053E00023F08053D3617B68DB69002B00F087805A
:1053F000364B5B6803F00C03082B61D07B68DB69DC
:10540000022B46D1334B00221A60FDF79BFC38611A
:1054100008E0FDF797FC02463B69D31A022B01D93D
:1054200003236DE0294B1B6803F00073002BF0D1C0
:105430007B681B6AB3F5803F08D1244B5B6823F47B
:1054400000327B689B68214913434B601F4B5B68AC
:1054500023F474127B68196A7B685B6A0B431B49EF
:1054600013434B601B4B01221A60FDF76BFC386144
:1054700008E0FDF767FC02463B69D31A022B01D90D
:1054800003233DE0114B1B6803F00073002BF0D0A9
:1054900035E0104B00221A60FDF754FC386108E03B
:1054A000FDF750FC02463B69D31A022B01D90323B6
:1054B00026E0064B1B6803F00073002BF0D11EE0C2
:1054C0007B68DB69012B07D1012319E00010024042
:1054D00000700040600042420B4B5B68FB60FB6861
:1054E00003F480327B681B6A9A4206D1FB6803F49E
:1054F00070127B685B6A9A4201D0012300E00023AE
:1055000018461837BD4680BD0010024080B584B0F3
:1055100000AF786039607B68002B01D10123D0E0B7
:105520006A4B1B6803F007033A689A4210D9674B2D
:105530001B6823F0070265493B6813430B60634B0C
:105540001B6803F007033A689A4201D00123B8E0D0
:105550007B681B6803F00203002B20D07B681B686C
:1055600003F00403002B05D0594B5B68584A43F401
:10557000E06353607B681B6803F00803002B05D0D1
:10558000534B5B68524A43F460535360504B5B6823
:1055900023F0F0027B689B684D4913434B607B68A6
:1055A0001B6803F00103002B40D07B685B68012B74
:1055B00007D1474B1B6803F40033002B15D101239F
:1055C0007FE07B685B68022B07D1414B1B6803F0CF
:1055D0000073002B09D1012373E03D4B1B6803F0DE
:1055E0000203002B01D101236BE0394B5B6823F0F0
:1055F00003027B685B68364913434B60FDF7A2FBEF
:10560000F8600AE0FDF79EFB0246FB68D31A41F200
:105610008832934201D9032353E02D4B5B6803F09A
:105620000C027B685B689B009A42EBD1274B1B689E
:1056300003F007033A689A4210D2244B1B6823F008
:10564000070222493B6813430B60204B1B6803F0A1
:1056500007033A689A4201D0012332E07B681B6855
:1056600003F00403002B08D0194B5B6823F4E062BD
:105670007B68DB68164913434B607B681B6803F04B
:105680000803002B09D0124B5B6823F460527B683F
:105690001B69DB000E4913434B6000F021F8024602
:1056A0000B4B5B681B0903F00F030A49CB5C22FA22
:1056B00003F3094A1360094B1B681846FDF700FB0A
:1056C000002318461037BD4680BD00BF00200240B1
:1056D0000010024010C500080C000020100000203F
:1056E00080B487B000AF0023FB600023BB600023C1
:1056F0007B6100237B6000233B611E4B5B68FB608A
:10570000FB6803F00C03042B02D0082B03D027E026
:10571000194B3B6127E0FB689B0C03F00F03174A12
:10572000D35C7B60FB6803F48033002B10D0114BFB
:105730005B685B0C03F00103114AD35CBB607B68C0
:105740000D4A03FB02F2BB68B2FBF3F37B6104E09A
:105750007B680C4A02FB03F37B617B693B6102E0DF
:10576000054B3B6100BF3B6918461C37BD4680BCFA
:10577000704700BF0010024000127A0028C50008E0
:1057800038C5000800093D0080B400AF024B1B681B
:105790001846BD4680BC70470C00002080B500AFA5
:1057A000FFF7F2FF0246054B5B681B0A03F0070395
:1057B0000349CB5C22FA03F3184680BD0010024077
:1057C00020C5000880B500AFFFF7DEFF0246054B9D
:1057D0005B68DB0A03F007030349CB5C22FA03F39F
:1057E000184680BD0010024020C5000880B485B076
:1057F00000AF78600A4B1B680A4AA2FB03235B0ACE
:105800007A6802FB03F3FB6000BFFB685A1EFA6074
:10581000002BF9D100BF00BF1437BD4680BC7047D4
:105820000C000020D34D621080B586B000AF7860C8
:1058300000233B610023FB607B681B6803F00103CE
:10584000002B7DD00023FB754F4BDB6903F08053A9
:10585000002B0DD14C4BDB694B4A43F08053D36195
:10586000494BDB6903F08053BB60BB680123FB75C8
:10587000464B1B6803F48073002B18D1434B1B6805
:10588000424A43F480731360FDF75CFA386108E024
:10589000FDF758FA02463B69D31A642B01D903235A
:1058A0006DE03A4B1B6803F48073002BF0D0364B4D
:1058B0001B6A03F44073FB60FB68002B2ED07B68EF
:1058C0005B6803F44073FA689A4227D02E4B1B6A38
:1058D00023F44073FB602E4B01221A602C4B0022F4
:1058E0001A60294AFB681362FB6803F00103002B6E
:1058F00014D0FDF727FA38610AE0FDF723FA0246D3
:105900003B69D31A41F28832934201D9032336E02E
:105910001D4B1B6A03F00203002BEED01A4B1B6ACF
:1059200023F440727B685B68174913430B62FB7D6D
:10593000012B05D1144BDB69134A23F08053D3614B
:105940007B681B6803F00203002B08D00E4B5B68DA
:1059500023F440427B689B680B4913434B607B6890
:105960001B6803F01003002B08D0074B5B6823F47F
:1059700080027B68DB68044913434B6000231846B0
:105980001837BD4680BD00BF0010024000700040C7
:105990004004424280B582B000AF78607B68002B43
:1059A00001D1012342E07B6893F84130DBB2002B48
:1059B00006D17B68002283F840207868FCF72EFF30
:1059C0007B68242283F841207B681B68DA687B6847
:1059D0001B6822F40052DA60786800F089FB7B686B
:1059E0001B681A697B681B6822F490421A617B6805
:1059F0001B685A697B681B6822F02A025A617B681F
:105A00001B68DA687B681B6842F40052DA607B68C6
:105A100000225A647B68202283F841207B68202280
:105A200083F842207B6800225A6300231846083717
:105A3000BD4680BD80B58AB002AFF860B9603B60FA
:105A40001346FB8000237B61FB6893F84130DBB297
:105A5000202B6DD1BB68002B02D0FB88002B01D11D
:105A6000012366E0FB6800225A64FB68212283F868
:105A70004120FDF767F97861FB68FA889A84FB6832
:105A8000FA88DA84FB689B68B3F5805F08D1FB680D
:105A90001B69002B04D10023FB61BB68BB6103E0E1
:105AA000BB68FB610023BB612AE03B6800937B6914
:105AB00000228021F86800F089F90346002B01D00C
:105AC000032336E0FB69002B0BD1BB691B881A4608
:105AD000FB681B68C2F308025A60BB690233BB61F2
